:100000000C943A010C9459010C9459010C94590127
:100010000C9459010C94C0050C94C0050C94010F6C
:100020000C9459010C9459010C9459010C945901E8
:100030000C9459010C9459010C9459010C945901D8
:100040000C9459010C9459010C9459010C945901C8
:100050000C9459010C94990C0C9459010C9459016D
:100060000C9459010C9459010C9459010C945901A8
:100070000C9459010C9459010C9459010C94590198
:100080000C948F0C0C9459010C9459010C94590147
:100090000C9459010C945901000000000000005F0D
:1000A00000000003000300143E143E14242A7F2A9B
:1000B000124333086661364955225000050300009B
:1000C000001C2241000041221C0014083E081408B4
:1000D000083E0808005030000008080808080060C2
:1000E00060000020100804023E5149453E00040211
:1000F0007F00426151494622414949361814127F16
:100100001027454545393E494949320101710907E2
:100110003649494936264949493E003636000000ED
:10012000563600000814224100141414141400411F
:1001300022140802015109063E4159555E7E090903
:10014000097E7F494949363E414141227F41414133
:100150003E7F494949417F090909013E4141493AE8
:100160007F0808087F00417F4100304040403F7FCA
:10017000081422417F404040407F020C027F7F02F2
:1001800004087F3E4141413E7F090909061E2121A5
:10019000215E7F09090976264949493201017F011B
:1001A000013F4040403F1F2040201F7F2010207F04
:1001B00041221C224107087008076151494543004C
:1001C0007F41000002040810200000417F0004026B
:1001D0000102044040404040000102040020545409
:1001E00054787F4444443838444444443844444474
:1001F0007F385454541804047E0505085454543C64
:100200007F0804047800447D40002040443D007F86
:100210001028440000417F40007C047804787C086A
:1002200004047838444444387C1414140808141422
:10023000147C007C080404485454542004043F44B3
:10024000443C4040207C1C2040201C3C4030403C32
:1002500044281028440C5050503C4464544C4400F2
:100260000836414100007F0000414136080002018C
:100270000204020011241FBECFEFD0E2DEBFCDBFCB
:1002800011E0A0E0B1E0E0E0FAE200E00BBF02C064
:1002900007900D92AA32B107D9F722E0AAE2B1E0A5
:1002A00001C01D92A031B207E1F70E94BA0F0C9471
:1002B000FE140C9400008091300190913101892B43
:1002C00049F4329907C081E090E090933101809326
:1002D00030010895329B04C0109231011092300118
:1002E00080E090E0089580912E0190912F01892B5C
:1002F00049F4339907C081E090E090932F018093F7
:100300002E010895339B04C010922F0110922E01EC
:1003100080E090E0089580912C0190912D01892B2F
:1003200049F4349907C081E090E090932D018093C7
:100330002C010895349B04C010922D0110922C01C1
:1003400080E090E0089580912A0190912B01892B03
:1003500049F4359907C081E090E090932B01809398
:100360002A010895359B04C010922B0110922A0196
:1003700080E090E0089593E89093B00091E090932E
:10038000B1008093B3000895909349018093480190
:1003900026E330E020930040009779F480EF90E06E
:1003A000909345018093440180E491E0909347014C
:1003B0008093460188E490E034C08130910579F45F
:1003C00080E491E0909345018093440180EF90E0B8
:1003D000909347018093460188EE90E022C08230DE
:1003E000910579F480EF90E090934501809344016A
:1003F00080E491E0909347018093460188E890E083
:1004000010C0039781F480E491E0909345018093BC
:10041000440180EF90E0909347018093460188E289
:1004200090E0809300418AE290E08093004020E0D9
:1004300030E030930041209300418091440190913D
:100440004501019790930041809300418BE290E039
:1004500080930040309300412093004180914601F9
:100460009091470101979093004180930041089536
:10047000CF93873748F4883048F08D3350F48F316C
:1004800050F4803150F403C086E703C088E0C3E035
:1004900005C0C0E003C0C1E001C0C2E021EB30E014
:1004A00020930040C0930041682F70E080E090E00E
:1004B0000E94CC109B01AC0160E070E080EF94E4FE
:1004C0000E9429100E949B1070E002C075956795EC
:1004D000CA95E2F760930041CF9108950F931F935F
:1004E000CF93DF93CDB7DEB728970FB6F894DEBF72
:1004F0000FBECDBF29833A834B835C836D837E839C
:100500008F83988769817A812B813C814D815E81BF
:100510008F819885EAE2F0E0E0930040709300411B
:10052000609300413093004120930041EBE2F0E002
:10053000E09300405093004140930041909300416C
:1005400080930041ECE2F0E0E09300402F5F3F4FEA
:10055000261B370B0196841B950B2817390790F43F
:10056000482F4770429FB001439F700D112453E004
:10057000969587955A95E1F7829FA001839F500D2C
:10058000112411C0422F4770489FB001499F700D40
:10059000112443E0369527954A95E1F7289FA0015D
:1005A000299F500D1124862F8770815028F01093B9
:1005B000004100930041F9CFCB0123E09695879548
:1005C0002A95E1F7840F951F019708F110930041D8
:1005D00000930041109300410093004110930041AB
:1005E000009300411093004100930041109300419B
:1005F000009300411093004100930041109300418B
:10060000009300411093004100930041DDCF2896F4
:100610000FB6F894DEBF0FBECDBFDF91CF911F9113
:100620000F910895EF92FF920F931F93CF93DF9353
:10063000CDB7DEB728970FB6F894DEBF0FBECDBF9B
:1006400029833A834B835C836D837E838F83988772
:1006500089819A81EB80FC806D817E81AF81B88534
:100660002AE230E0209300409093004180930041C3
:10067000F0920041E09200412BE230E020930040F4
:100680007093004160930041B0930041A0930041FA
:100690002CE230E020930040E816F906A0F0A80113
:1006A0009B018A01A217B30760F04E5F5F4FF8010C
:1006B0000081118110930041009300412F5F3F4F53
:1006C000F0CF0196E9CF28960FB6F894DEBF0FBEA3
:1006D000CDBFDF91CF911F910F91FF90EF900895C3
:1006E0000F931F93CF93DF93CDB7DEB728970FB645
:1006F000F894DEBF0FBECDBFE4E4F1E017821682AE
:10070000118610861A821982808191810197482F63
:100710009C838B831E821D8282819381019798879F
:100720008F830485158520E03A815C8160E07E81BD
:1007300098850E946E0228960FB6F894DEBF0FBE11
:10074000CDBFDF91CF911F910F91089586E08093E7
:10075000750080E8809374003F9A249A8FEC97E0AC
:100760000197F1F700C0000047988FE39CE90197DB
:10077000F1F700C00000479A9FEF2DEE82E0915004
:1007800020408040E1F700C0000088E290E08093C4
:10079000004081E190E0809300409FEF26E781E0F8
:1007A000915020408040E1F700C0000021E030E09F
:1007B0008BEC90E0809300402093004180EC90E02F
:1007C0008093004088E096E290930041809300413E
:1007D00020E130E081EC90E08093004020930041E4
:1007E00085EC90E0809300408EE395E39093004188
:1007F0008093004125EB30E087EC90E0809300404F
:100800002093004121E030E086EF90E080930040AB
:100810002093004180E090E090930041809300415C
:1008200025E530E08AE390E080930040209300418A
:1008300081E090E00E94C4010E947003E4E4F1E0D2
:100840001782168211861086158614868FEF9FEF09
:100850009387828789E290E0809300409FE728E3B6
:1008600081E0915020408040E1F700C0000020E08E
:1008700030E085E390E08093004020930041EAE679
:10088000F0E08081806280832C9A08959F92AF92DD
:10089000BF92CF92DF92EF92FF920F931F93CF936D
:1008A000DF9320914C0130914D018A30F9F4109280
:1008B0004B0110924A01285F3F4F30934D01209326
:1008C0004C0180914601909147012817390708F49F
:1008D000A5C0DF91CF911F910F91FF90EF90DF9016
:1008E000CF90BF90AF909F900C94700390EE980FB4
:1008F0009F3508F093C060914A0170914B01A901A6
:10090000495F5F4F082E000C990B8097E5E0E89F48
:10091000E001E99FD00D11248BE290E0809300402C
:100920003093004120930041509300414093004197
:10093000CB01DB0114960AE210E0ECE2EE2EF12C82
:10094000A817B90780F1009300409093004180936D
:1009500000419093004180930041E0920040FC01EF
:10096000E61BF70BEC0FFD1FE856FF4F9490690153
:10097000F1E04C155D05A8F0BF2EB92029F0A0903C
:100980004E01B0904F0104C0A0905001B0905101B1
:10099000B0920041A0920041EFEFCE1ADE0AFF0FA5
:1009A000E8CF0196CDCF6AE270E06093004090936B
:1009B00000418093004190930041809300418CE27C
:1009C00090E0809300404217530758F08091500107
:1009D0009091510190930041809300412F5F3F4FD0
:1009E000F2CF80914A0190914B01069690934B0172
:1009F00080934A0120914401309145018217930769
:100A000068F010924B0110924A0180914C01909134
:100A10004D01089690934D0180934C01DF91CF9149
:100A20001F910F91FF90EF90DF90CF90BF90AF900C
:100A30009F9008950F931F93CF938C01C0E0F8010E
:100A4000EC0FF11D8081882321F00E944604CF5FC6
:100A5000F6CFCF911F910F9108950F931F93CF93CE
:100A60008C0170934B0160934A0150934D01409368
:100A70004C01C0E0F801EC0FF11D8081882321F0CA
:100A80000E944604CF5FF6CFCF911F910F9108953A
:100A9000EF92FF920F931F93CF93DF93C0E0D0E0CC
:100AA00090E8E92EF12C082F10E0C7010C2E02C0AF
:100AB000959587950A94E2F780239123892B11F06D
:100AC00081E301C08EE20E9446042196C830D10520
:100AD00061F7DF91CF911F910F91FF90EF900895F3
:100AE000279A2F9808952F9A089514BC15BC2F9813
:100AF000089593E894BD91E095BD87BD08958DB1AB
:100B00008F748DB98EB1806B8EB987B1837C87B9B4
:100B100088B18C6388B9EAE6F0E0808185688083DB
:100B200008958CB1807349F490913301903281F033
:100B3000909133019031E1F413C08033C9F4909166
:100B40003301903129F090913301903289F408C03B
:100B5000909132019150909332018033A1F306C0FD
:100B6000909132019F5F9093320102C0882301F37C
:100B70008093330180913201089586B18C7308957A
:100B80001F920F920FB60F9211240BB60F922F9354
:100B90003F934F935F936F937F938F939F93AF9305
:100BA000BF93EF93FF930E94910587EC90E001972C
:100BB000F1F700C00000FF91EF91BF91AF919F91BD
:100BC0008F917F916F915F914F913F912F910F90F6
:100BD0000BBE0F900FBE0F901F901895E1E6F0E04E
:100BE00080E8808310820E94A6038DE30E94380271
:100BF000EE9A87B1837C87B988B18C6388B982E02B
:100C000084BD85E085BD10929000E1E9F0E080812F
:100C1000886080838081856080838EE487BD8DE0DD
:100C200093E09093990080939800EEE6F0E0808145
:100C300082608083E1E7F0E080818260808380E0F1
:100C400090E00E94A70FCB010C94A7114F925F92E6
:100C50006F927F928F929F92AF92BF92CF92DF92CC
:100C6000EF92FF920F931F93CF93DF93CDB7DEB731
:100C7000C856D1090FB6F894DEBF0FBECDBF7B01B9
:100C800092E3899F802D11248B5F90E0A3969FAF04
:100C90008EAFA397AC01465F5F4FA5965FAF4EAF97
:100CA000A597A1EEB0E0A796BFAFAEAFA79726EE8F
:100CB000422E512CA9965FAE4EAEA9976B969FAF70
:100CC0008EAF6B976D965FAF4EAF6D9737EDA32EDE
:100CD000B12C6F96BFAEAEAE6F976CED862E912C99
:100CE000A1969FAE8EAEA19763969FAF8EAF63978E
:100CF00065965FAF4EAF65972DEC30E067963FAFDE
:100D00002EAF679772ED672E712C69967FAE6EAE2F
:100D100069972B965FAF4EAF2B97BC01685D7F4FF5
:100D20002D967FAF6EAF2D9740ED50E02F965FAFC1
:100D30004EAF2F9703EE10E061961FAF0EAF619795
:100D40008C01035F1F4F23961FAF0EAF23970B5FDE
:100D50001F4F25961FAF0EAF25970EEB10E027967D
:100D60001FAF0EAF279729965FAF4EAF29976C0143
:100D7000E0E2CE0ED11CDAAEC9AE6C01E5E2CE0ED9
:100D8000D11CDCAECBAE1EAF0DAF21965FAF4EAF28
:100D900021978C010C5E1F4F1AAB09AB0D5F1F4FE3
:100DA0001CAB0BAB3EAB2DAB58AF4FAB0C5F1F4F2B
:100DB0001AA709A70D5F1F4F1CA70BA73EA72DA7BA
:100DC00058AB4FA7AC014B5E5F4F5AA349A34F5F8F
:100DD0005F4F5CA34BA33EA32DA34EEC50E058A75E
:100DE0004FA3025011091A8F098F0F5F1F4F1C8FDD
:100DF0000B8F3E8F2D8F58A34F8F7A8B698BC296A6
:100E00009C8B8B8BBE8BAD8B588E4F8A7A87698774
:100E10009C878B87BE86AD86988A8F867A83698306
:100E20009C838B833E832D8378866F8281E0E816D6
:100E3000F10419F000E018EF02C001E410E7A296F7
:100E40002FADA297A3963FADA397A4964FADA497BD
:100E5000A5965FADA597A6966FADA697A7967FAD11
:100E6000A797A8968FADA897A9969FADA9970E941E
:100E70006E02E1E0EE16F10419F000E018EF02C096
:100E800001E410E76A962FAD6A976B963FAD6B97BA
:100E90006C964FAD6C976D965FAD6D976E966FAD1E
:100EA0006E976F967FAD6F97A0968FADA097A19626
:100EB0009FADA1970E946E0281E0E816F10419F03F
:100EC00000E018EF02C001E410E762962FAD6297D0
:100ED00063963FAD639764964FAD649765965FAD3B
:100EE000659766966FAD669767967FAD67976896CC
:100EF0008FAD689769969FAD69970E946E02E1E099
:100F0000EE16F10419F000E018EF02C001E410E75A
:100F100029893A894B895C896D897E898F89988D69
:100F20000E946E0281E0E816F10419F000E018EF6B
:100F300002C001E410E729853A854B855C856D8503
:100F40007E858F8598890E946E02E1E0EE16F1049D
:100F500019F000E018EF02C001E410E729813A819E
:100F60004B815C816D817E818F8198850E946E02AC
:100F700081E0E816F10419F000E018EF02C001E486
:100F800010E722962FAD229723963FAD2397249604
:100F90004FAD249725965FAD259726966FAD269782
:100FA00027967FAD279728968FAD289729969FADD6
:100FB00029970E946E02E1E0EE16F10419F000E0BC
:100FC00018EF02C001E410E729AD3AAD4BAD5CADBE
:100FD0006DAD7EAD8FAD21969FAD21970E946E02C3
:100FE000EA94EF2819F000E018EF02C001E410E7DE
:100FF0002A962FAD2A972B963FAD2B972C964FAD67
:101000002C972D965FAD2D972E966FAD2E972F9620
:101010007FAD2F9760968FAD609761969FAD61977A
:101020000E946E020FEF1FEF29A93AA94BA95CA9F4
:101030006DA97EA98FA998AD0E946E0229A53AA537
:101040004BA55CA56DA57EA58FA598A90E946E02F3
:101050000FE110E029A13AA14BA15CA16DA17EA1F5
:101060008FA198A50E946E02298D3A8D4B8D5C8DC3
:101070006D8D7E8D8F8D98A10E946E02C859DF4FB5
:101080000FB6F894DEBF0FBECDBFDF91CF911F9199
:101090000F91FF90EF90DF90CF90BF90AF909F9017
:1010A0008F907F906F905F904F9008950F931F9354
:1010B000CF93DF93CDB7DEB7C055D1090FB6F89403
:1010C000DEBF0FBECDBF22E3829FC00111249C0171
:1010D000215F3F4F2B963FAF2EAF2B9744962D9617
:1010E0009FAF8EAF2D9770E0FB014130510511F499
:1010F000359701C03A972F96FFAFEEAF2F97FB01C0
:101100004130510509F435966196FFAFEEAF619716
:1011100023963FAF2EAF239725969FAF8EAF25978F
:10112000FB014130510511F4B89701C0BD972796D6
:10113000FFAFEEAF2797FB014130510511F47E97C9
:1011400001C0B3972996FFAFEEAF2997F9017E96BC
:10115000FAAFE9AFD9019396BCAFABAF8B01413089
:10116000510519F40A50110902C0055011091EAFAA
:101170000DAF8B014130510511F00B5F1F4F2196D0
:101180001FAF0EAF2197FAABE9ABBCABABABDB014A
:101190004130510511F49D9701C09897BEABADAB9E
:1011A0004130510521F4AB014352510903C0AB0159
:1011B0004E51510958AF4FABA901465F5F4F5AA737
:1011C00049A7D9015996BCA7ABA78B0108521109B1
:1011D0001EA70DA778AB6FA79AA389A35CA34BA307
:1011E000AB014E5151095EA34DA3CB010A9798A7BD
:1011F0008FA3BA8FA98FFC8FEB8F5E8F4D8F98A333
:101200008F8FC9010F969A8B898B05969C8B8B8B40
:101210007E8B6D8BCB010596988F8F8BA901405FDC
:101220005F4F5A8749874F5F5F4F5C874B876C5F83
:101230007F4F7E876D87988B8F874F5F5F4F5A8375
:1012400049832D5E3F4F3C832B837E836D8398873C
:101250008F8300EE17E02A962FAD2A972B963FAD8D
:101260002B972C964FAD2C972D965FAD2D972E96E4
:101270006FAD2E972F967FAD2F9760968FAD6097AD
:1012800061969FAD61970E946E0222962FAD2297C4
:1012900023963FAD239724964FAD249725965FADB7
:1012A000259726966FAD269727967FAD2797289688
:1012B0008FAD289729969FAD29970E946E0229AD80
:1012C0003AAD4BAD5CAD6DAD7EAD8FAD21969FADB2
:1012D00021970E946E0229A93AA94BA95CA96DA980
:1012E0007EA98FA998AD0E946E0205EC12E829A58F
:1012F0003AA54BA55CA56DA57EA58FA598A90E94D2
:101300006E0229A13AA14BA15CA16DA17EA18FA182
:1013100098A50E946E02298D3A8D4B8D5C8D6D8D46
:101320007E8D8F8D98A10E946E0200EE17E02989B4
:101330003A894B895C896D897E898F89988D0E9455
:101340006E020FEF17E029853A854B855C856D8528
:101350007E858F8598890E946E0229813A814B8112
:101360005C816D817E818F8198850E946E02C05B59
:10137000DF4F0FB6F894DEBF0FBECDBFDF91CF9128
:101380001F910F910895CF92DF92EF92FF920F93EA
:101390001F93CF93DF93CDB7DEB760970FB6F89466
:1013A000DEBF0FBECDBFF62E12E3819FC001112418
:1013B0006C012EE1C20ED11CFF2009F461C04F2D3B
:1013C00050E06DEF64039001659F300D1124C6015C
:1013D000820F931F9A878987E3E0FE9EC001112444
:1013E000B601680F791F7C876B871AEF1403B00171
:1013F000159F700D1124AB014E525F4F5E874D87D4
:10140000E6E0FE9EA0011124FA01EE52FF4FF88B98
:10141000EF876C0D7D1D7A8369834C0D5D1D5C83A8
:101420004B832E523F4F3E832D838E529F4F988782
:101430008F831F2D1170E12EF0FC03C007E41BE722
:1014400002C00BE815EE29853A854B855C856D85D4
:101450007E858F8598890E946E02E11003C007E4A3
:101460001BE702C00BE815EE29813A814B815C81B4
:101470006D817E818F8198850E946E02FA949CCF47
:1014800060960FB6F894DEBF0FBECDBFDF91CF914F
:101490001F910F91FF90EF90DF90CF9008954F92A2
:1014A0005F926F927F928F929F92AF92BF92CF92F4
:1014B000DF92EF92FF920F931F93CF93DF93CDB7FD
:1014C000DEB7C856D1090FB6F894DEBF0FBECDBF48
:1014D00080913E0122E3829F202D11242B5F30E07A
:1014E000922EA3963FAF2EAFA397B901665F7F4FB1
:1014F000862EA5967FAF6EAFA59781EE482E612C04
:1015000086EE512C6B963FAF2EAF6B976D967FAFEB
:101510006EAF6D9797EDE92EF12C6F96FFAEEEAEA4
:101520006F970CED10E0A1961FAF0EAFA1976396D9
:101530003FAF2EAF639765967FAF6EAF65974DEC6B
:1015400050E067965FAF4EAF6797A2EDB0E0699647
:10155000BFAFAEAF69972B967FAF6EAF2B97F901F8
:10156000B8962D96FFAFEEAF2D9760ED70E02F96F9
:101570007FAF6EAF2F9793EEC92ED12C6196DFAE61
:10158000CEAE619769019DE0C90ED11C2396DFAEF6
:10159000CEAE2397690192E1C90ED11C2596DFAE2C
:1015A000CEAE25979EEBC92ED12C2796DFAECEAEC0
:1015B000279729967FAF6EAF2997590190E2A90E20
:1015C000B11CBAAEA9AE590195E2A90EB11CBCAED0
:1015D000ABAEDEAECDAE21967FAF6EAF2197690187
:1015E00094E1C90ED11CDAAAC9AA690197E1C90E12
:1015F000D11CDCAACBAA5EAB4DAB78AF6FAB690157
:101600009BE1C90ED11CDAA6C9A669019EE1C90EEB
:10161000D11CDCA6CBA65EA74DA778AB6FA7B901FE
:101620006B5E7F4F7AA369A36F5F7F4F7CA36BA331
:101630005EA34DA36EEC70E078A76FA369019CE1F7
:10164000C90ED11CDA8EC98E69019DE1C90ED11C6B
:10165000DC8ECB8E5E8F4D8F78A36F8FFA8BE98BEC
:101660002E5C3F4F3C8B2B8B4D8A6E8A8F8B588E16
:10167000FA87E9873C872B87FE86ED86188B0F87D4
:10168000FA83E9833C832B835E834D83B887AF83E2
:1016900000E010E0292DA3963FADA397482DA59615
:1016A0005FADA597642D70E090E00E946E026A968F
:1016B0002FAD6A976B963FAD6B976C964FAD6C975D
:1016C0006D965FAD6D976E966FAD6E976F967FADB1
:1016D0006F97A0968FADA097A1969FADA1970E94FE
:1016E0006E0262962FAD629763963FAD63976496E4
:1016F0004FAD649765965FAD659766966FAD6697DB
:1017000067967FAD679768968FAD689769969FAD2E
:1017100069970E946E0229893A894B895C896D8993
:101720007E898F89988D0E946E0229853A854B8526
:101730005C856D857E858F8598890E946E022981E2
:101740003A814B815C816D817E818F8198850E9479
:101750006E0222962FAD229723963FAD23972496B3
:101760004FAD249725965FAD259726966FAD2697AA
:1017700027967FAD279728968FAD289729969FADFE
:1017800029970E946E0229AD3AAD4BAD5CAD6DADAF
:101790007EAD8FAD21969FAD21970E946E022A9655
:1017A0002FAD2A972B963FAD2B972C964FAD2C97AC
:1017B0002D965FAD2D972E966FAD2E972F967FAD00
:1017C0002F9760968FAD609761969FAD61970E944D
:1017D0006E0229A93AA94BA95CA96DA97EA98FA976
:1017E00098AD0E946E0229A53AA54BA55CA56DA5F2
:1017F0007EA58FA598A90E946E0229A13AA14BA1AE
:101800005CA16DA17EA18FA198A50E946E02298D79
:101810003A8D4B8D5C8D6D8D7E8D8F8D98A10E9444
:101820006E02C859DF4F0FB6F894DEBF0FBECDBFB2
:10183000DF91CF911F910F91FF90EF90DF90CF90AC
:10184000BF90AF909F908F907F906F905F904F90E0
:1018500008950F931F93CF93DF93CDB7DEB72897EB
:101860000FB6F894DEBF0FBECDBF22E3829FC0014A
:101870001124AC01415F5F4F242F5A834983C296E4
:10188000482F9C838B83CB01C297E82F9E838D8347
:10189000CC9698878F8300E010E03A815C816E2FB0
:1018A0007E8198850E946E0228960FB6F894DEBF5E
:1018B0000FBECDBFDF91CF911F910F9108950F9370
:1018C0001F93CF93DF93CDB7DEB728970FB6F89469
:1018D000DEBF0FBECDBF22E3829FC0011124AC0149
:1018E0004B5F5F4F242F5A834983C796482F9C83B1
:1018F0008B8384EB682F80EF00E010E03A815C81FD
:1019000070E090E00E946E0228960FB6F894DEBF59
:101910000FBECDBFDF91CF911F910F9108951F9200
:101920000F920FB60F9211240F900FBE0F901F90C1
:1019300018951F920F920FB60F9211240BB60F92AB
:101940002F933F934F935F936F937F938F939F93C7
:10195000AF93BF93EF93FF930E94A301892BC9F02C
:1019600080913E018823A9F0809136019091370142
:10197000892B79F40E944F0A80913E018150809317
:101980003E01609134017091350180913E010E94C9
:1019900026060E947301892BC9F080913E01853093
:1019A000A8F48091360190913701892B79F40E9437
:1019B0004F0A80913E018F5F80933E016091340118
:1019C0007091350180913E010E942606FF91EF91B2
:1019D000BF91AF919F918F917F916F915F914F9147
:1019E0003F912F910F900BBE0F900FBE0F901F9045
:1019F000189521E030E0019711F420E030E0C901B2
:101A00000895E5E0E69F9001E79F300D1124820FD5
:101A1000931F415051096417750764F425E0FC01D8
:101A20003596DC0101900D922A95E1F76F5F7F4FAB
:101A30000596F1CF0895FB01EE0FFF1FE60FF71F8C
:101A4000E80FF91F41505109641775074CF4838161
:101A50009481A58181939193A1936F5F7F4FF4CF80
:101A60000895FF920F931F93CF93DF93C0E0D0E0D0
:101A700085E0F82E80913C0190913D01C817D9076F
:101A800008F077C0FC9E8001FD9E100D11240A58BD
:101A90001E4FF8016181728180810E94290CF8013A
:101AA000818192818E3B910538F1908180913E0138
:101AB000981322C04EE150E0BE0186E791E00E94FB
:101AC000010D80913C0190913D01019790933D0162
:101AD00080933C0180914201909143010196909343
:101AE0004301809342010E944F0A80913E0160E0D1
:101AF00070E00E9426063BC0FC9EF001FD9EF00DAA
:101B00001124EA58FE4F81819281803F910588F02F
:101B10004EE150E0BE0186E791E00E94010D809108
:101B20003C0190913D01019790933D0180933C01D0
:101B30001EC08181928101969283818323813481A9
:101B400081E090E02130310511F480E090E0FC9ECE
:101B5000F001FD9EF00D1124EA58FE4F948383831B
:101B6000438154816181728180810E94560821964F
:101B700081CFDF91CF911F910F91FF900895EF9248
:101B8000FF920F931F93CF93DF9300E010E0EE24BA
:101B9000E394F12C80913A0190913B0108171907C9
:101BA00008F04BC0E801CC0FDD1FC00FD11FCE5A8B
:101BB000DE4F8A818F5F8A838233A8F11A828981FE
:101BC0008F5F898389818530A8F188810E945F0CAD
:101BD000988180913E01981315C0F0923501E092F2
:101BE0003401609134017091350180913E010E9471
:101BF00026068091000190910101019790930101C7
:101C0000809300014CE050E0B80182E591E00E9431
:101C10001B0D80913A0190913B01019790933B01FC
:101C200080933A0107C088810E945F0C6981888196
:101C30000E94C3090F5F1F4FADCFDF91CF911F915E
:101C40000F91FF90EF90089520913C0130913D015C
:101C50002F313105A0F520913C0130913D0195E0F7
:101C6000929FF001939FF00D1124EA58FE4F80835C
:101C700020913C0130913D01929FF001939FF00D26
:101C80001124EA58FE4F28E230E03283218320916C
:101C90003C0130913D01929FF001939FF00D112482
:101CA000EA58FE4F81E090E09483838380913C0169
:101CB00090913D01019690933D0180933C010895E0
:101CC0000E94A311209102013091030168E873E1A1
:101CD0000E9401102817390740F00E94A31166E006
:101CE00070E00E9401100C94240E089520913A0196
:101CF00030913B012D30310520F520913A01309192
:101D00003B01F901EE0FFF1F2E0F3F1FF901EE5AA5
:101D1000FE4F808380913A0190913B01FC01EE0FD0
:101D2000FF1F8E0F9F1FFC01EE5AFE4F81E0818343
:101D300080913A0190913B01019690933B018093F1
:101D40003A0108950E94A3112091020130910301EC
:101D500060E177E20E9401102817390740F00E94E5
:101D6000A31166E070E00E9401100C94760E0895B5
:101D70000F931F93CF93DF93CDB7DEB7E2970FB6E4
:101D8000F894DEBF0FBECDBF809142019091430118
:101D90009F938F9388E091E09F938F938E010F5FC5
:101DA0001F4F1F930F930E94B21140E050E060E07C
:101DB00070E0C8010E942D05809100019091010101
:101DC0009F938F9384E191E09F938F931F930F9341
:101DD0000E94B21140E050E06EE071E0C8010E9444
:101DE0002D050FB6F894DEBF0FBECDBFE2960FB63D
:101DF000F894DEBF0FBECDBFDF91CF911F910F9141
:101E000008951F920F920FB60F9211240BB60F92E6
:101E10002F933F934F935F936F937F938F939F93F2
:101E2000AF93BF93EF93FF93809141018F5F8093B6
:101E3000410180914101833020F1809136019091E0
:101E40003701892BF1F40E94600E0E94310D0E942F
:101E5000A20E0E94BF0D80913E0190E00E944F0AA9
:101E6000609134017091350180913E010E942606F7
:101E70000E94B80E1092410180913F018F5F8093C4
:101E80003F0180913F018A3060F08091360190914E
:101E90003701892B31F410923501109234011092E0
:101EA0003F01FF91EF91BF91AF919F918F917F91F2
:101EB0006F915F914F913F912F910F900BBE0F90BB
:101EC0000FBE0F901F9018950F931F93CF93DF9322
:101ED000CDB7DEB7E2970FB6F894DEBF0FBECDBF29
:101EE00048E750E067E870E080E291E00E942D054D
:101EF00080914201909143019F938F9388E091E0FC
:101F00009F938F938E010F5F1F4F1F930F930E941C
:101F1000B21142E850E062E870E0C8010E942D056D
:101F200081E090E090933701809336010F900F90FD
:101F30000F900F900F900F90E2960FB6F894DEBFBF
:101F40000FBECDBFDF91CF911F910F910895FC017E
:101F50000FB6F89460910C0270910D0280910E0200
:101F600090910F020FBE309721F0608371838283BE
:101F7000938308950E94EE05789480913E0160E07D
:101F800070E00E9426060E94A31166E070E00E94A5
:101F900001100E94240E8091360190913701892B07
:101FA000D1F78091000190910101892B11F40E94D9
:101FB000640F8091400191E0980F9093400183302D
:101FC00058F0809138019091390101969093390130
:101FD000809338011092400180913801909139012D
:101FE00080319742C0F280910201909103010196E5
:101FF00090930301809302011092390110923801ED
:10200000CACF97FB072E16F4009407D077FD09D0AE
:102010000E94151007FC05D03EF4909581959F4FC6
:102020000895709561957F4F0895AA1BBB1B51E1E0
:1020300007C0AA1FBB1FA617B70710F0A61BB70B38
:10204000881F991F5A95A9F780959095BC01CD01DD
:1020500008950E943D100C941E110E94171158F013
:102060000E94101140F029F45F3F29F00C940711F1
:1020700051110C9452110C940D110E942F1168F300
:102080009923B1F3552391F3951B550BBB27AA2731
:1020900062177307840738F09F5F5F4F220F331F6B
:1020A000441FAA1FA9F335D00E2E3AF0E0E832D033
:1020B00091505040E695001CCAF72BD0FE2F29D036
:1020C000660F771F881FBB1F261737074807AB0708
:1020D000B0E809F0BB0B802DBF01FF2793585F4F7D
:1020E0003AF09E3F510578F00C9407110C94521170
:1020F0005F3FE4F3983ED4F3869577956795B7955F
:10210000F7959F5FC9F7880F911D9695879597F969
:102110000895E1E0660F771F881FBB1F62177307E2
:102120008407BA0720F0621B730B840BBA0BEE1FF7
:1021300088F7E09508950E94371188F09F5798F02E
:10214000B92F9927B751B0F0E1F0660F771F881FBC
:10215000991F1AF0BA95C9F714C0B13091F00E94D6
:102160005111B1E008950C945111672F782F8827F1
:10217000B85F39F0B93FCCF3869577956795B395FD
:10218000D9F73EF490958095709561957F4F8F4F6C
:102190009F4F0895E89409C097FB3EF49095809571
:1021A000709561957F4F8F4F9F4F9923A9F0F92F1D
:1021B00096E9BB279395F695879577956795B7959B
:1021C000F111F8CFFAF4BB0F11F460FF1BC06F5F81
:1021D0007F4F8F4F9F4F16C0882311F096E911C093
:1021E000772321F09EE8872F762F05C0662371F0B4
:1021F00096E8862F70E060E02AF09A95660F771FC8
:10220000881FDAF7880F9695879597F9089597F9BB
:102210009F6780E870E060E008959FEF80EC08958C
:1022200000240A94161617061806090608950024B5
:102230000A9412161306140605060895092E03942F
:10224000000C11F4882352F0BB0F40F4BF2B11F4A3
:1022500060FF04C06F5F7F4F8F4F9F4F089557FD02
:102260009058440F551F59F05F3F71F04795880F04
:1022700097FB991F61F09F3F79F08795089512169B
:1022800013061406551FF2CF4695F1DF08C0161647
:1022900017061806991FF1CF8695710561050894F8
:1022A0000895E894BB2766277727CB0197F908950F
:1022B0008F929F92AF92BF92CF92DF92EF92FF9256
:1022C000CF93DF93EC01688179818A819B816115CD
:1022D00071058105910521F464E279ED8BE597E0C4
:1022E0002DE133EF41E050E00E949B1449015A0177
:1022F0009B01AC01A7EAB1E40E94BA146B017C0116
:10230000ACEEB4EFA50194010E94C814DC01CB012E
:102310008C0D9D1DAE1DBF1DB7FF03C00197A10908
:10232000B04888839983AA83BB839F77DF91CF913D
:10233000FF90EF90DF90CF90BF90AF909F908F90E5
:1023400008950C94581184E091E00C945811A0E089
:10235000B0E08093040190930501A0930601B0932F
:10236000070108950F931F93CF93DF93CDB7DEB787
:102370002E970FB6F894DEBF0FBECDBF0D891E8914
:1023800086E08C831A8309838FEF9FE79E838D837A
:10239000AE01475E5F4F6F89788DCE0101960E9436
:1023A000E111EF81F885E00FF11F10822E960FB634
:1023B000F894DEBF0FBECDBFDF91CF911F910F917B
:1023C00008952F923F924F925F926F927F928F92D9
:1023D0009F92AF92BF92CF92DF92EF92FF920F93B4
:1023E0001F93CF93DF93CDB7DEB72B970FB6F8943B
:1023F000DEBF0FBECDBF6C017B018A01FC011782DD
:102400001682838181FFCCC1CE0101963C01F60189
:102410009381F70193FD859193FF81917F0188233B
:1024200009F4BAC1853239F493FD859193FF819106
:102430007F01853229F4B60190E00E940114E7CFB4
:10244000912C212C312CFFE1F315D8F08B3279F04F
:1024500038F4803279F08332A1F4232D20611DC03D
:102460008D3261F0803369F4232D216016C0832DF5
:102470008260382EE32DE4603E2E2AC0F32DF860F2
:102480001DC037FC2DC020ED280F2A3040F08E32C1
:10249000B9F436FC81C1232D2064322E19C036FEDA
:1024A00006C08AE0989E200D1124922E11C0EAE009
:1024B0002E9E200D1124222EF32DF0623F2E08C0F7
:1024C0008C3621F4832D8068382E02C0883641F482
:1024D000F70193FD859193FF81917F018111B3CF26
:1024E000982F9F7D9554933028F40C5F1F4F9FE3E6
:1024F00099830DC0833631F0833771F0833509F04D
:1025000059C021C0F801808189830E5F1F4F882444
:102510008394912C530113C02801F2E04F0E511CFB
:10252000F801A080B18036FE03C0692D70E002C0C2
:102530006FEF7FEFC5010E94F6134C018201F32D6E
:10254000FF773F2E16C0280122E0420E511CF801F1
:10255000A080B18036FE03C0692D70E002C06FEF2D
:102560007FEFC5010E94EB134C01F32DF0683F2E65
:10257000820133FC1BC0822D90E088169906B0F4CE
:10258000B60180E290E00E9401142A94F4CFF50194
:1025900037FC859137FE81915F01B60190E00E9482
:1025A000011421102A9421E0821A910881149104C7
:1025B00071F7E8C0843611F0893641F5F80137FE2D
:1025C00007C060817181828193810C5F1F4F08C0B9
:1025D00060817181072E000C880B990B0E5F1F4FD5
:1025E000F32DFF763F2E97FF09C09095809570954B
:1025F00061957F4F8F4F9F4FF0683F2E2AE030E06C
:10260000A3010E943D14882E861845C0853731F4F9
:10261000232D2F7EB22E2AE030E025C0932D997F06
:10262000B92E8F36C1F018F4883579F0B5C08037EF
:1026300019F0883721F0B0C0E92FE061BE2EB4FE5A
:102640000DC0FB2DF460BF2E09C034FE0AC0292F37
:102650002660B22E06C028E030E005C020E130E060
:1026600002C020E132E0F801B7FE07C0608171814D
:10267000828193810C5F1F4F06C06081718180E071
:1026800090E00E5F1F4FA3010E943D14882E861814
:10269000FB2DFF773F2E36FE0DC0232D2E7FA22E61
:1026A000891458F434FE0BC032FC09C0832D8E7E91
:1026B000A82E05C0B82CA32C03C0B82C01C0B92C7F
:1026C000A4FE0FC0FE01E80DF11D8081803321F4CE
:1026D0009A2D997EA92E09C0A2FE06C0B394B39488
:1026E00004C08A2D867809F0B394A3FC11C0A0FE23
:1026F00006C0B21488F4280C922C9B180EC0B21499
:1027000060F4B60180E290E00E940114B394F7CF28
:10271000B21418F42B1802C0982C212CA4FE10C05F
:10272000B60180E390E00E940114A2FE17C0A1FC54
:1027300003C088E790E002C088E590E0B6010CC0D5
:102740008A2D867859F0A1FE02C08BE201C080E29A
:10275000A7FC8DE2B60190E00E940114891438F4C0
:10276000B60180E390E00E9401149A94F7CF8A9416
:10277000F301E80DF11D8081B60190E00E94011483
:102780008110F5CF222009F442CEB60180E290E01C
:102790000E9401142A94F6CFF6018681978102C027
:1027A0008FEF9FEF2B960FB6F894DEBF0FBECDBF15
:1027B000DF91CF911F910F91FF90EF90DF90CF901D
:1027C000BF90AF909F908F907F906F905F904F9051
:1027D0003F902F900895FC010590615070400110CA
:1027E000D8F7809590958E0F9F1F0895FC0161503A
:1027F000704001900110D8F7809590958E0F9F1F23
:1028000008950F931F93CF93DF93FB01238121FD45
:1028100003C08FEF9FEF2CC022FF16C04681578167
:10282000248135814217530744F4A081B1819D0171
:102830002F5F3F4F318320838C93268137812F5F19
:102840003F4F3783268314C08B01EC01FB010084CA
:10285000F185E02D0995892BE1F6D80116968D9129
:102860009C911797019617969C938E931697CE017D
:10287000DF91CF911F910F910895FA01AA27283077
:1028800051F1203181F1E8946F936E7F6E5F7F4F3D
:102890008F4F9F4FAF4FB1E03ED0B4E03CD0670FB9
:1028A000781F891F9A1FA11D680F791F8A1F911D0C
:1028B000A11D6A0F711D811D911DA11D20D009F45C
:1028C00068943F912AE0269F11243019305D31939E
:1028D000DEF6CF010895462F4770405D4193B3E087
:1028E0000FD0C9F7F6CF462F4F70405D4A3318F02E
:1028F000495D31FD4052419302D0A9F7EACFB4E0DF
:10290000A6959795879577956795BA95C9F7009796
:102910006105710508959B01AC010A2E0694579537
:10292000479537952795BA95C9F7620F731F841F8E
:10293000951FA01D0895052E97FB1EF400940E947C
:10294000B21457FD07D00E94CD1407FC03D04EF4FB
:102950000C94B21450954095309521953F4F4F4FB0
:102960005F4F089590958095709561957F4F8F4F3B
:102970009F4F08950E94EF14A59F900DB49F900D56
:10298000A49F800D911D11240895B7FF0C94BA14D3
:102990000E94BA14821B930B0895A1E21A2EAA1B5F
:1029A000BB1BFD010DC0AA1FBB1FEE1FFF1FA217FF
:1029B000B307E407F50720F0A21BB30BE40BF50BFC
:1029C000661F771F881F991F1A9469F76095709585
:1029D000809590959B01AC01BD01CF010895A29F08
:1029E000B001B39FC001A39F700D811D1124911DE3
:1029F000B29F700D811D1124911D0895F894FFCF91
:102A0000030001000100000053636F72653A202546
:102A1000303464004C697665733A202530316400A7
:0A2A200047616D65204F7665720076
:00000001FF
