:100000000C943A010C9459010C9459010C94590127
:100010000C9459010C9452070C9452070C94D6047A
:100020000C9459010C9459010C9459010C945901E8
:100030000C9459010C9459010C9459010C945901D8
:100040000C9459010C949B050C9459010C94590182
:100050000C9459010C9459010C9459010C945901B8
:100060000C9459010C9459010C9459010C945901A8
:100070000C9459010C9459010C9459010C94590198
:100080000C94BD060C9459010C9459010C9459011F
:100090000C9459010C945901000000000000005F0D
:1000A00000000003000300143E143E14242A7F2A9B
:1000B000124333086661364955225000050300009B
:1000C000001C2241000041221C0014083E081408B4
:1000D000083E0808005030000008080808080060C2
:1000E00060000020100804023E5149453E00040211
:1000F0007F00426151494622414949361814127F16
:100100001027454545393E494949320101710907E2
:100110003649494936264949493E003636000000ED
:10012000563600000814224100141414141400411F
:1001300022140802015109063E4159555E7E090903
:10014000097E7F494949363E414141227F41414133
:100150003E7F494949417F090909013E4141493AE8
:100160007F0808087F00417F4100304040403F7FCA
:10017000081422417F404040407F020C027F7F02F2
:1001800004087F3E4141413E7F090909061E2121A5
:10019000215E7F09090976264949493201017F011B
:1001A000013F4040403F1F2040201F7F2010207F04
:1001B00041221C224107087008076151494543004C
:1001C0007F41000002040810200000417F0004026B
:1001D0000102044040404040000102040020545409
:1001E00054787F4444443838444444443844444474
:1001F0007F385454541804047E0505085454543C64
:100200007F0804047800447D40002040443D007F86
:100210001028440000417F40007C047804787C086A
:1002200004047838444444387C1414140808141422
:10023000147C007C080404485454542004043F44B3
:10024000443C4040207C1C2040201C3C4030403C32
:1002500044281028440C5050503C4464544C4400F2
:100260000836414100007F0000414136080002018C
:100270000204020011241FBECFEFD0E2DEBFCDBFCB
:1002800011E0A0E0B1E0E2EAF8E100E00BBF02C05B
:1002900007900D92A232B107D9F721E0A2E2B1E0B6
:1002A00001C01D92A635B207E1F70E9480070C94A9
:1002B0004F0C0C94000093E89093B00091E0909361
:1002C000B1008093B300089590932A01809329018F
:1002D00026E330E020930040009779F480EF90E02F
:1002E000909326018093250180E491E0909328016A
:1002F0008093270188E490E034C08130910579F43F
:1003000080E491E0909326018093250180EF90E0B6
:10031000909328018093270188EE90E022C08230DC
:10032000910579F480EF90E0909326018093250168
:1003300080E491E0909328018093270188E890E081
:1003400010C0039781F480E491E09093260180939C
:10035000250180EF90E0909328018093270188E2A7
:1003600090E0809300418AE290E08093004020E09A
:1003700030E030930041209300418091250190911D
:100380002601019790930041809300418BE290E019
:1003900080930040309300412093004180912701D9
:1003A0009091280101979093004180930041089516
:1003B000CF93873748F4883048F08D3350F48F312D
:1003C00050F4803150F403C086E703C088E0C3E0F6
:1003D00005C0C0E003C0C1E001C0C2E021EB30E0D5
:1003E00020930040C0930041682F70E080E090E0CF
:1003F0000E94DA089B01AC0160E070E080EF94E4B9
:100400000E9437080E94A90870E002C075956795A0
:10041000CA95E2F760930041CF9108950F931F931F
:10042000CF93DF93CDB7DEB728970FB6F894DEBF32
:100430000FBECDBF29833A834B835C836D837E835C
:100440008F83988769817A812B813C814D815E8180
:100450008F819885EAE2F0E0E093004070930041DC
:10046000609300413093004120930041EBE2F0E0C3
:10047000E09300405093004140930041909300412D
:1004800080930041ECE2F0E0E09300402F5F3F4FAB
:10049000261B370B0196841B950B2817390790F400
:1004A000482F4770429FB001439F700D112453E0C5
:1004B000969587955A95E1F7829FA001839F500DED
:1004C000112411C0422F4770489FB001499F700D01
:1004D000112443E0369527954A95E1F7289FA0011E
:1004E000299F500D1124862F8770815028F010937A
:1004F000004100930041F9CFCB0123E09695879509
:100500002A95E1F7840F951F019708F11093004198
:10051000009300411093004100930041109300416B
:10052000009300411093004100930041109300415B
:10053000009300411093004100930041109300414B
:10054000009300411093004100930041DDCF2896B5
:100550000FB6F894DEBF0FBECDBFDF91CF911F91D4
:100560000F910895EF92FF920F931F93CF93DF9314
:10057000CDB7DEB728970FB6F894DEBF0FBECDBF5C
:1005800029833A834B835C836D837E838F83988733
:1005900089819A81EB80FC806D817E81AF81B885F5
:1005A0002AE230E020930040909300418093004184
:1005B000F0920041E09200412BE230E020930040B5
:1005C0007093004160930041B0930041A0930041BB
:1005D0002CE230E020930040E816F906A0F0A801D4
:1005E0009B018A01A217B30760F04E5F5F4FF801CD
:1005F0000081118110930041009300412F5F3F4F14
:10060000F0CF0196E9CF28960FB6F894DEBF0FBE63
:10061000CDBFDF91CF911F910F91FF90EF90089583
:100620000F931F93CF93DF93CDB7DEB728970FB605
:10063000F894DEBF0FBECDBFE5E2F1E0178216826F
:10064000118610861A821982808191810197482F24
:100650009C838B831E821D82828193810197988760
:100660008F830485158520E03A815C8160E07E817E
:1006700098850E940E0228960FB6F894DEBF0FBE32
:10068000CDBFDF91CF911F910F91089586E08093A8
:10069000750080E8809374003F9A249A8FEC97E06D
:1006A0000197F1F700C0000047988FE39CE901979C
:1006B000F1F700C00000479A9FEF2DEE82E09150C5
:1006C00020408040E1F700C0000088E290E0809385
:1006D000004081E190E0809300409FEF26E781E0B9
:1006E000915020408040E1F700C0000021E030E060
:1006F0008BEC90E0809300402093004180EC90E0F0
:100700008093004088E096E29093004180930041FE
:1007100020E130E081EC90E08093004020930041A4
:1007200085EC90E0809300408EE395E39093004148
:100730008093004125EB30E087EC90E0809300400F
:100740002093004121E030E086EF90E0809300406C
:100750002093004180E090E090930041809300411D
:1007600025E530E08AE390E080930040209300414B
:1007700080E090E00E9464010E941003E5E2F1E055
:100780001782168211861086158614868FEF9FEFCA
:100790009387828789E290E0809300409FE728E377
:1007A00081E0915020408040E1F700C0000020E04F
:1007B00030E085E390E08093004020930041EAE63A
:1007C000F0E08081806280832C9A08959F92AF929E
:1007D000BF92CF92DF92EF92FF920F931F93CF932E
:1007E000DF9390EE980F9F3508F097C060912B0132
:1007F00070912C0120912D0130912E01A901495FAA
:100800005F4F082E000C990B8097E5E0E89FE00110
:10081000E99FD00D11248BE290E08093004030934B
:100820000041209300415093004140930041CB018F
:10083000DB0114960AE210E0ECE2EE2EF12CA81790
:10084000B90780F1009300409093004180930041EC
:100850009093004180930041E0920040FC01E61B30
:10086000F70BEC0FFD1FE856FF4F94906901F1E084
:100870004C155D05A8F0BF2EB92029F0A0902F01DE
:10088000B090300104C0A0903101B0903201B0921C
:100890000041A0920041EFEFCE1ADE0AFF0FE8CF31
:1008A0000196CDCF6AE270E06093004090930041E2
:1008B0008093004190930041809300418CE290E04E
:1008C000809300404217530758F080913101909176
:1008D000320190930041809300412F5F3F4FF2CF50
:1008E00080912B0190912C01069690932C0180937E
:1008F0002B0120912501309126018217930768F082
:1009000010922C0110922B0180912D0190912E01BB
:10091000089690932E0180932D01DF91CF911F9126
:100920000F91FF90EF90DF90CF90BF90AF909F908E
:1009300008950F931F93CF938C01C0E0F801EC0F43
:10094000F11D8081882321F00E94E603CF5FF6CF5E
:10095000CF911F910F9108950F931F93CF938C0107
:1009600070932C0160932B0150932E0140932D0125
:10097000C0E0F801EC0FF11D8081882321F00E9476
:10098000E603CF5FF6CFCF911F910F910895279A7D
:100990002F9808952F9A089514BC15BC2F98089588
:1009A00093E894BD91E095BD87BD08951F920F9285
:1009B0000FB60F9211240BB60F92EF92FF920F9386
:1009C0001F932F933F934F935F936F937F938F93D7
:1009D0009F93AF93BF93EF93FF93CF93DF9300D099
:1009E00000D0CDB7DEB785E2E82E81E0F82EF70122
:1009F0000485158520913B0130913C0140913D01DA
:100A000050913E0160913F01709140018091410100
:100A1000909142010E940E0200E018EF20914601E1
:100A200030914701409148015091490160914A013C
:100A300070914B0180914C0190914D010E940E02EA
:100A4000F7010485158520913301309134014091DF
:100A500035015091360160913701709138018091D4
:100A6000390190913A010E940E0200EE17E02091A8
:100A70004E0130914F0140915001509151016091D0
:100A800052017091530180915401909155010E943F
:100A90000E0288E0E6E4F1E0ABE3B1E001900D92F4
:100AA0008A95E1F788E0EEE4F1E0A3E3B1E001909C
:100AB0000D928A95E1F780914301909144019F93B3
:100AC0008F9382E191E09F938F938E010F5F1F4F71
:100AD0001F930F930E94660944E150E068EC70E0B8
:100AE000C8010E94AC04809122018F5F8093220193
:100AF0000F900F900F900F900F900F900F900F90FE
:100B00000F900F90DF91CF91FF91EF91BF91AF9137
:100B10009F918F917F916F915F914F913F912F9115
:100B20001F910F91FF90EF900F900BBE0F900FBE93
:100B30000F901F9018951F920F920FB60F921124CD
:100B40000BB60F922F933F934F935F936F937F93C7
:100B50008F939F93AF93BF93EF93FF934091460181
:100B60005091470190910101692F092E000C770BDC
:100B7000460F571F5093470140934601209148016B
:100B800030914901260F371F3093490120934801C6
:100B900040914A0150914B0180910001682F082E2D
:100BA000000C770B460F571F50934B0140934A019F
:100BB00020914C0130914D01260F371F30934D018C
:100BC00020934C0140914801509149012091250109
:100BD00030912601215031094217530730F42091FA
:100BE000460130914701232B19F49195909301010F
:100BF00020914A0130914B01232B19F48195809368
:100C0000000140914C0150914D01209127013091FC
:100C10002801C901019748175907A1F540914601DC
:100C2000509147018091500190915101841795078F
:100C300048F1409148015091490180914E019091B5
:100C40004F0148175907F0F080910001819580937A
:100C500000018091430190914401019690934401D9
:100C6000809343016AE070E00E942308892B51F4CD
:100C7000809188009091890096958795909389003E
:100C8000809388008091230187FF18C080914E01D6
:100C900090914F010A9790F080914E0190914F01F1
:100CA0000A9790934F0180934E018091500190914B
:100CB00051010A9790935101809350018091230133
:100CC0001816F4F440915001509151018091250182
:100CD000909126010A974817590790F480914E0188
:100CE00090914F010A9690934F0180934E0180910D
:100CF0005001909151010A969093510180935001B7
:100D00001092230180914C0190914D0128173907D1
:100D100008F58091450181508093450190914501EE
:100D2000990F83E001C0880F9A95EAF70E94D004DA
:100D300088E0E2E0F1E0A6E4B1E001900D928A954E
:100D4000E1F788E0EAE0F1E0AEE4B1E001900D9275
:100D50008A95E1F7FF91EF91BF91AF919F918F91AC
:100D60007F916F915F914F913F912F910F900BBEAB
:100D70000F900FBE0F901F9018951F920F920FB6F5
:100D80000F9211240BB60F920F931F932F933F9343
:100D90004F935F936F937F938F939F93AF93BF9383
:100DA000EF93FF93CF93DF9300D000D0CDB7DEB7A2
:100DB000809122011F928F9382E191E09F938F9304
:100DC0008E010F5F1F4F1F930F930E94660944E12E
:100DD00050E068E270E0C8010E94AC041092220169
:100DE0000F900F900F900F900F900F900F900F900B
:100DF0000F900F90DF91CF91FF91EF91BF91AF9145
:100E00009F918F917F916F915F914F913F912F9122
:100E10001F910F910F900BBE0F900FBE0F901F9060
:100E200018958DB18F748DB98EB1806B8EB987B1E5
:100E3000837C87B988B18C6388B9EAE6F0E0808169
:100E40008568808308958CB1807349F49091240162
:100E5000903281F0909124019031E1F413C08033FD
:100E6000C9F490912401903129F09091240190329D
:100E700089F408C09091230191509093230180330D
:100E8000A1F306C0909123019F5F9093230102C0BC
:100E9000882301F38093240180912301089586B172
:100EA0008C7308951F920F920FB60F9211240BB6F8
:100EB0000F922F933F934F935F936F937F938F93F3
:100EC0009F93AF93BF93EF93FF930E94230787EC09
:100ED00090E00197F1F700C00000FF91EF91BF9102
:100EE000AF919F918F917F916F915F914F913F91C2
:100EF0002F910F900BBE0F900FBE0F901F90189563
:100F0000CF93DF93CDB7DEB760970FB6F894DEBF0F
:100F10000FBECDBF80E880936100109261000E94F7
:100F200011070E94C7040E9446038DE30E94D80166
:100F3000EE9A8DB380638DBB1092800098E0909301
:100F400081008091810081608093810080916F0099
:100F5000826080936F001092900090939100809136
:100F600091008460809391008091710082608093F1
:100F7000710082E19AE7909399008093980083E052
:100F8000F82E0FEF1FEF88E0EAE0F1E0DE0119969E
:100F900001900D928A95E1F788E0FE013996AEE462
:100FA000B1E001900D928A95E1F788E0FE01399653
:100FB000A3E3B1E001900D928A95E1F788E0E2E0C9
:100FC000F1E0DE01119601900D928A95E1F788E03B
:100FD000FE013196A6E4B1E001900D928A95E1F709
:100FE00088E0FE013196ABE3B1E001900D928A9565
:100FF000E1F7F092450110924401109243011093E1
:101000008900009388000E94CA0478948091450169
:101010008111FCCFF8940E94CC0446E950E06AE5C7
:1010200070E087E191E00E94AC042E9A679B08C0B3
:101030001E9B03C00E94CA04F9CF0E94CC04F6CFC5
:101040000E941003A0CFAA1BBB1B51E107C0AA1F1F
:10105000BB1FA617B70710F0A61BB70B881F991F59
:101060005A95A9F780959095BC01CD0108950E94ED
:101070004B080C942C090E94250958F00E941E0967
:1010800040F029F45F3F29F00C94150951110C949C
:1010900060090C941B090E943D0968F39923B1F380
:1010A000552391F3951B550BBB27AA27621773078E
:1010B000840738F09F5F5F4F220F331F441FAA1F22
:1010C000A9F335D00E2E3AF0E0E832D091505040DE
:1010D000E695001CCAF72BD0FE2F29D0660F771F8C
:1010E000881FBB1F261737074807AB07B0E809F072
:1010F000BB0B802DBF01FF2793585F4F3AF09E3FF7
:10110000510578F00C9415090C9460095F3FE4F3E5
:10111000983ED4F3869577956795B795F7959F5F39
:10112000C9F7880F911D9695879597F90895E1E085
:10113000660F771F881FBB1F621773078407BA07E4
:1011400020F0621B730B840BBA0BEE1F88F7E0953F
:1011500008950E94450988F09F5798F0B92F992764
:10116000B751B0F0E1F0660F771F881F991F1AF092
:10117000BA95C9F714C0B13091F00E945F09B1E08F
:1011800008950C945F09672F782F8827B85F39F08E
:10119000B93FCCF3869577956795B395D9F73EF42B
:1011A00090958095709561957F4F8F4F9F4F0895D3
:1011B000E89409C097FB3EF49095809570956195F1
:1011C0007F4F8F4F9F4F9923A9F0F92F96E9BB27A7
:1011D0009395F695879577956795B795F111F8CF23
:1011E000FAF4BB0F11F460FF1BC06F5F7F4F8F4F8E
:1011F0009F4F16C0882311F096E911C0772321F084
:101200009EE8872F762F05C0662371F096E8862F1B
:1012100070E060E02AF09A95660F771F881FDAF772
:10122000880F9695879597F9089597F99F6780E8B5
:1012300070E060E008959FEF80EC089500240A9428
:101240001616170618060906089500240A941216A1
:101250001306140605060895092E0394000C11F4D4
:10126000882352F0BB0F40F4BF2B11F460FF04C081
:101270006F5F7F4F8F4F9F4F089557FD9058440FDA
:10128000551F59F05F3F71F04795880F97FB991FE5
:1012900061F09F3F79F087950895121613061406A2
:1012A000551FF2CF4695F1DF08C01616170618062F
:1012B000991FF1CF86957105610508940895E8940A
:1012C000BB2766277727CB0197F908950F931F93C4
:1012D000CF93DF93CDB7DEB72E970FB6F894DEBF6E
:1012E0000FBECDBF0D891E8986E08C831A830983CA
:1012F0008FEF9FE79E838D83AE01475E5F4F6F89BF
:10130000788DCE0101960E949509EF81F885E00F56
:10131000F11F10822E960FB6F894DEBF0FBECDBF20
:10132000DF91CF911F910F9108952F923F924F928D
:101330005F926F927F928F929F92AF92BF92CF9265
:10134000DF92EF92FF920F931F93CF93DF93CDB76E
:10135000DEB72B970FB6F894DEBF0FBECDBF6C0182
:101360007B018A01FC0117821682838181FFCCC137
:10137000CE0101963C01F6019381F70193FD859121
:1013800093FF81917F01882309F4BAC1853239F432
:1013900093FD859193FF81917F01853229F4B601F8
:1013A00090E00E94B50BE7CF912C212C312CFFE16E
:1013B000F315D8F08B3279F038F4803279F083323B
:1013C000A1F4232D20611DC08D3261F0803369F4BA
:1013D000232D216016C0832D8260382EE32DE4601A
:1013E0003E2E2AC0F32DF8601DC037FC2DC020ED25
:1013F000280F2A3040F08E32B9F436FC81C1232DFB
:101400002064322E19C036FE06C08AE0989E200D58
:101410001124922E11C0EAE02E9E200D1124222EBE
:10142000F32DF0623F2E08C08C3621F4832D8068A6
:10143000382E02C0883641F4F70193FD859193FF61
:1014400081917F018111B3CF982F9F7D9554933067
:1014500028F40C5F1F4F9FE399830DC0833631F052
:10146000833771F0833509F059C021C0F8018081BC
:1014700089830E5F1F4F88248394912C530113C0DE
:101480002801F2E04F0E511CF801A080B18036FE19
:1014900003C0692D70E002C06FEF7FEFC5010E94AD
:1014A000AA0B4C018201F32DFF773F2E16C02801B5
:1014B00022E0420E511CF801A080B18036FE03C02C
:1014C000692D70E002C06FEF7FEFC5010E949F0B96
:1014D0004C01F32DF0683F2E820133FC1BC0822D9E
:1014E00090E088169906B0F4B60180E290E00E9480
:1014F000B50B2A94F4CFF50137FC859137FE819125
:101500005F01B60190E00E94B50B21102A9421E002
:10151000821A91088114910471F7E8C0843611F0A1
:10152000893641F5F80137FE07C0608171818281FB
:1015300093810C5F1F4F08C060817181072E000CE2
:10154000880B990B0E5F1F4FF32DFF763F2E97FFF1
:1015500009C090958095709561957F4F8F4F9F4FF3
:10156000F0683F2E2AE030E0A3010E94F10B882EA4
:10157000861845C0853731F4232D2F7EB22E2AE000
:1015800030E025C0932D997FB92E8F36C1F018F425
:10159000883579F0B5C0803719F0883721F0B0C0B0
:1015A000E92FE061BE2EB4FE0DC0FB2DF460BF2E0E
:1015B00009C034FE0AC0292F2660B22E06C028E0DA
:1015C00030E005C020E130E002C020E132E0F80167
:1015D000B7FE07C060817181828193810C5F1F4FCC
:1015E00006C06081718180E090E00E5F1F4FA30113
:1015F0000E94F10B882E8618FB2DFF773F2E36FEBA
:101600000DC0232D2E7FA22E891458F434FE0BC05A
:1016100032FC09C0832D8E7EA82E05C0B82CA32CC9
:1016200003C0B82C01C0B92CA4FE0FC0FE01E80D08
:10163000F11D8081803321F49A2D997EA92E09C055
:10164000A2FE06C0B394B39404C08A2D867809F034
:10165000B394A3FC11C0A0FE06C0B21488F4280CF9
:10166000922C9B180EC0B21460F4B60180E290E098
:101670000E94B50BB394F7CFB21418F42B1802C024
:10168000982C212CA4FE10C0B60180E390E00E94AB
:10169000B50BA2FE17C0A1FC03C088E790E002C012
:1016A00088E590E0B6010CC08A2D867859F0A1FE3D
:1016B00002C08BE201C080E2A7FC8DE2B60190E09F
:1016C0000E94B50B891438F4B60180E390E00E94C3
:1016D000B50B9A94F7CF8A94F301E80DF11D808140
:1016E000B60190E00E94B50B8110F5CF222009F4DD
:1016F00042CEB60180E290E00E94B50B2A94F6CF6C
:10170000F6018681978102C08FEF9FEF2B960FB66F
:10171000F894DEBF0FBECDBFDF91CF911F910F9127
:10172000FF90EF90DF90CF90BF90AF909F908F9001
:101730007F906F905F904F903F902F900895FC01A5
:101740000590615070400110D8F7809590958E0FEC
:101750009F1F0895FC016150704001900110D8F75F
:10176000809590958E0F9F1F08950F931F93CF9391
:10177000DF93FB01238121FD03C08FEF9FEF2CC07E
:1017800022FF16C0468157812481358142175307B5
:1017900044F4A081B1819D012F5F3F4F31832083AD
:1017A0008C93268137812F5F3F4F3783268314C068
:1017B0008B01EC01FB010084F185E02D0995892B5B
:1017C000E1F6D80116968D919C9117970196179680
:1017D0009C938E931697CE01DF91CF911F910F911D
:1017E0000895FA01AA27283051F1203181F1E894B7
:1017F0006F936E7F6E5F7F4F8F4F9F4FAF4FB1E004
:101800003ED0B4E03CD0670F781F891F9A1FA11DFE
:10181000680F791F8A1F911DA11D6A0F711D811DFF
:10182000911DA11D20D009F468943F912AE0269FC4
:1018300011243019305D3193DEF6CF010895462F23
:101840004770405D4193B3E00FD0C9F7F6CF462F04
:101850004F70405D4A3318F0495D31FD405241936D
:1018600002D0A9F7EACFB4E0A6959795879577952A
:101870006795BA95C9F700976105710508959B01B1
:10188000AC010A2E06945795479537952795BA953A
:10189000C9F7620F731F841F951FA01D0895F89448
:0218A000FFCF78
:1018A200010176007A00000003005F0091003D0113
:1018B2003F01253033640047616D65204F766572C4
:0218C200000024
:00000001FF
